{
  "_format": "hh-sol-artifact-1",
  "contractName": "InsuranceFactory",
  "sourceName": "contracts/InsuranceFactory.sol",
  "abi": [
    {
      "inputs": [
        {
          "internalType": "address",
          "name": "_token",
          "type": "address"
        }
      ],
      "stateMutability": "nonpayable",
      "type": "constructor"
    },
    {
      "inputs": [
        {
          "internalType": "uint256",
          "name": "",
          "type": "uint256"
        }
      ],
      "name": "allInsuranceContracts",
      "outputs": [
        {
          "internalType": "address",
          "name": "",
          "type": "address"
        }
      ],
      "stateMutability": "view",
      "type": "function"
    },
    {
      "inputs": [],
      "name": "assicuratore",
      "outputs": [
        {
          "internalType": "address",
          "name": "",
          "type": "address"
        }
      ],
      "stateMutability": "view",
      "type": "function"
    },
    {
      "inputs": [
        {
          "internalType": "address",
          "name": "assicurato",
          "type": "address"
        },
        {
          "internalType": "uint256",
          "name": "premioAssicurativo",
          "type": "uint256"
        }
      ],
      "name": "createInsurance",
      "outputs": [
        {
          "internalType": "address",
          "name": "",
          "type": "address"
        }
      ],
      "stateMutability": "nonpayable",
      "type": "function"
    },
    {
      "inputs": [],
      "name": "getAllInsuranceContracts",
      "outputs": [
        {
          "internalType": "address[]",
          "name": "",
          "type": "address[]"
        }
      ],
      "stateMutability": "view",
      "type": "function"
    },
    {
      "inputs": [],
      "name": "tokenAddress",
      "outputs": [
        {
          "internalType": "address",
          "name": "",
          "type": "address"
        }
      ],
      "stateMutability": "view",
      "type": "function"
    }
  ],
  "bytecode": "0x608060405234801561001057600080fd5b506040516118a63803806118a68339818101604052810190610032919061011c565b336000806101000a81548173ffffffffffffffffffffffffffffffffffffffff021916908373ffffffffffffffffffffffffffffffffffffffff16021790555080600160006101000a81548173ffffffffffffffffffffffffffffffffffffffff021916908373ffffffffffffffffffffffffffffffffffffffff16021790555050610149565b600080fd5b600073ffffffffffffffffffffffffffffffffffffffff82169050919050565b60006100e9826100be565b9050919050565b6100f9816100de565b811461010457600080fd5b50565b600081519050610116816100f0565b92915050565b600060208284031215610132576101316100b9565b5b600061014084828501610107565b91505092915050565b61174e806101586000396000f3fe608060405234801561001057600080fd5b50600436106100575760003560e01c806308e7bebb1461005c57806328b09fd31461007a5780637a33bb44146100aa5780639d76ea58146100da578063f4265ced146100f8575b600080fd5b610064610116565b6040516100719190610418565b60405180910390f35b610094600480360381019061008f9190610475565b6101a4565b6040516100a191906104b1565b60405180910390f35b6100c460048036038101906100bf91906104f8565b6101e3565b6040516100d191906104b1565b60405180910390f35b6100e26102d1565b6040516100ef91906104b1565b60405180910390f35b6101006102f7565b60405161010d91906104b1565b60405180910390f35b6060600280548060200260200160405190810160405280929190818152602001828054801561019a57602002820191906000526020600020905b8160009054906101000a900473ffffffffffffffffffffffffffffffffffffffff1673ffffffffffffffffffffffffffffffffffffffff1681526020019060010190808311610150575b5050505050905090565b600281815481106101b457600080fd5b906000526020600020016000915054906101000a900473ffffffffffffffffffffffffffffffffffffffff1681565b60008060008054906101000a900473ffffffffffffffffffffffffffffffffffffffff1684600160009054906101000a900473ffffffffffffffffffffffffffffffffffffffff16856040516102389061031b565b6102459493929190610547565b604051809103906000f080158015610261573d6000803e3d6000fd5b5090506002819080600181540180825580915050600190039060005260206000200160009091909190916101000a81548173ffffffffffffffffffffffffffffffffffffffff021916908373ffffffffffffffffffffffffffffffffffffffff1602179055508091505092915050565b600160009054906101000a900473ffffffffffffffffffffffffffffffffffffffff1681565b60008054906101000a900473ffffffffffffffffffffffffffffffffffffffff1681565b61118c8061058d83390190565b600081519050919050565b600082825260208201905092915050565b6000819050602082019050919050565b600073ffffffffffffffffffffffffffffffffffffffff82169050919050565b600061037f82610354565b9050919050565b61038f81610374565b82525050565b60006103a18383610386565b60208301905092915050565b6000602082019050919050565b60006103c582610328565b6103cf8185610333565b93506103da83610344565b8060005b8381101561040b5781516103f28882610395565b97506103fd836103ad565b9250506001810190506103de565b5085935050505092915050565b6000602082019050818103600083015261043281846103ba565b905092915050565b600080fd5b6000819050919050565b6104528161043f565b811461045d57600080fd5b50565b60008135905061046f81610449565b92915050565b60006020828403121561048b5761048a61043a565b5b600061049984828501610460565b91505092915050565b6104ab81610374565b82525050565b60006020820190506104c660008301846104a2565b92915050565b6104d581610374565b81146104e057600080fd5b50565b6000813590506104f2816104cc565b92915050565b6000806040838503121561050f5761050e61043a565b5b600061051d858286016104e3565b925050602061052e85828601610460565b9150509250929050565b6105418161043f565b82525050565b600060808201905061055c60008301876104a2565b61056960208301866104a2565b61057660408301856104a2565b6105836060830184610538565b9594505050505056fe608060405234801561001057600080fd5b5060405161118c38038061118c833981810160405281019061003291906101ed565b836000806101000a81548173ffffffffffffffffffffffffffffffffffffffff021916908373ffffffffffffffffffffffffffffffffffffffff16021790555082600160006101000a81548173ffffffffffffffffffffffffffffffffffffffff021916908373ffffffffffffffffffffffffffffffffffffffff1602179055506000600360006101000a81548160ff02191690831515021790555080600281905550816003806101000a81548173ffffffffffffffffffffffffffffffffffffffff021916908373ffffffffffffffffffffffffffffffffffffffff1602179055506000600360016101000a81548160ff0219169083151502179055506000600360026101000a81548160ff02191690831515021790555050505050610254565b600080fd5b600073ffffffffffffffffffffffffffffffffffffffff82169050919050565b600061018482610159565b9050919050565b61019481610179565b811461019f57600080fd5b50565b6000815190506101b18161018b565b92915050565b6000819050919050565b6101ca816101b7565b81146101d557600080fd5b50565b6000815190506101e7816101c1565b92915050565b6000806000806080858703121561020757610206610154565b5b6000610215878288016101a2565b9450506020610226878288016101a2565b9350506040610237878288016101a2565b9250506060610248878288016101d8565b91505092959194509250565b610f29806102636000396000f3fe608060405234801561001057600080fd5b506004361061009e5760003560e01c8063bd097e2111610066578063bd097e2114610111578063c52b26251461011b578063f3a504f214610139578063f4265ced14610157578063fc0c546a146101755761009e565b80632fb7a693146100a357806337332fbe146100c15780634d569aed146100cb57806350237f72146100e95780638fda356d14610107575b600080fd5b6100ab610193565b6040516100b891906108ee565b60405180910390f35b6100c96101a6565b005b6100d3610402565b6040516100e091906108ee565b60405180910390f35b6100f1610415565b6040516100fe9190610922565b60405180910390f35b61010f61041b565b005b610119610694565b005b610123610852565b604051610130919061097e565b60405180910390f35b610141610878565b60405161014e91906108ee565b60405180910390f35b61015f61088b565b60405161016c919061097e565b60405180910390f35b61017d6108af565b60405161018a91906109f8565b60405180910390f35b600360009054906101000a900460ff1681565b60008054906101000a900473ffffffffffffffffffffffffffffffffffffffff1673ffffffffffffffffffffffffffffffffffffffff163373ffffffffffffffffffffffffffffffffffffffff1614610234576040517f08c379a000000000000000000000000000000000000000000000000000000000815260040161022b90610a96565b60405180910390fd5b600360009054906101000a900460ff1615610284576040517f08c379a000000000000000000000000000000000000000000000000000000000815260040161027b90610b02565b60405180910390fd5b600360019054906101000a900460ff166102d3576040517f08c379a00000000000000000000000000000000000000000000000000000000081526004016102ca90610b6e565b60405180910390fd5b600360029054906101000a900460ff16610322576040517f08c379a000000000000000000000000000000000000000000000000000000000815260040161031990610bda565b60405180910390fd5b60038054906101000a900473ffffffffffffffffffffffffffffffffffffffff1673ffffffffffffffffffffffffffffffffffffffff1663a9059cbb600160009054906101000a900473ffffffffffffffffffffffffffffffffffffffff166002546040518363ffffffff1660e01b81526004016103a1929190610bfa565b6020604051808303816000875af11580156103c0573d6000803e3d6000fd5b505050506040513d601f19601f820116820180604052508101906103e49190610c54565b506001600360006101000a81548160ff021916908315150217905550565b600360019054906101000a900460ff1681565b60025481565b600160009054906101000a900473ffffffffffffffffffffffffffffffffffffffff1673ffffffffffffffffffffffffffffffffffffffff163373ffffffffffffffffffffffffffffffffffffffff16146104ab576040517f08c379a00000000000000000000000000000000000000000000000000000000081526004016104a290610cf3565b60405180910390fd5b600360009054906101000a900460ff16156104fb576040517f08c379a00000000000000000000000000000000000000000000000000000000081526004016104f290610b02565b60405180910390fd5b600360019054906101000a900460ff161561054b576040517f08c379a000000000000000000000000000000000000000000000000000000000815260040161054290610d5f565b60405180910390fd5b600360029054906101000a900460ff1661059a576040517f08c379a000000000000000000000000000000000000000000000000000000000815260040161059190610bda565b60405180910390fd5b60038054906101000a900473ffffffffffffffffffffffffffffffffffffffff1673ffffffffffffffffffffffffffffffffffffffff166323b872dd600160009054906101000a900473ffffffffffffffffffffffffffffffffffffffff16306064600560025461060b9190610dae565b6106159190610e1f565b6040518463ffffffff1660e01b815260040161063393929190610e50565b6020604051808303816000875af1158015610652573d6000803e3d6000fd5b505050506040513d601f19601f820116820180604052508101906106769190610c54565b506001600360016101000a81548160ff021916908315150217905550565b60008054906101000a900473ffffffffffffffffffffffffffffffffffffffff1673ffffffffffffffffffffffffffffffffffffffff163373ffffffffffffffffffffffffffffffffffffffff1614610722576040517f08c379a000000000000000000000000000000000000000000000000000000000815260040161071990610a96565b60405180910390fd5b600360029054906101000a900460ff1615610772576040517f08c379a000000000000000000000000000000000000000000000000000000000815260040161076990610ed3565b60405180910390fd5b60038054906101000a900473ffffffffffffffffffffffffffffffffffffffff1673ffffffffffffffffffffffffffffffffffffffff166323b872dd60008054906101000a900473ffffffffffffffffffffffffffffffffffffffff16306002546040518463ffffffff1660e01b81526004016107f193929190610e50565b6020604051808303816000875af1158015610810573d6000803e3d6000fd5b505050506040513d601f19601f820116820180604052508101906108349190610c54565b506001600360026101000a81548160ff021916908315150217905550565b600160009054906101000a900473ffffffffffffffffffffffffffffffffffffffff1681565b600360029054906101000a900460ff1681565b60008054906101000a900473ffffffffffffffffffffffffffffffffffffffff1681565b60038054906101000a900473ffffffffffffffffffffffffffffffffffffffff1681565b60008115159050919050565b6108e8816108d3565b82525050565b600060208201905061090360008301846108df565b92915050565b6000819050919050565b61091c81610909565b82525050565b60006020820190506109376000830184610913565b92915050565b600073ffffffffffffffffffffffffffffffffffffffff82169050919050565b60006109688261093d565b9050919050565b6109788161095d565b82525050565b6000602082019050610993600083018461096f565b92915050565b6000819050919050565b60006109be6109b96109b48461093d565b610999565b61093d565b9050919050565b60006109d0826109a3565b9050919050565b60006109e2826109c5565b9050919050565b6109f2816109d7565b82525050565b6000602082019050610a0d60008301846109e9565b92915050565b600082825260208201905092915050565b7f4f6e6c792074686520696e73757265722063616e2063616c6c2074686973206660008201527f756e6374696f6e00000000000000000000000000000000000000000000000000602082015250565b6000610a80602783610a13565b9150610a8b82610a24565b604082019050919050565b60006020820190508181036000830152610aaf81610a73565b9050919050565b7f416c7265616479206c6971756964617465640000000000000000000000000000600082015250565b6000610aec601283610a13565b9150610af782610ab6565b602082019050919050565b60006020820190508181036000830152610b1b81610adf565b9050919050565b7f436f6e7472616374206e6f742061637469766174656420796574000000000000600082015250565b6000610b58601a83610a13565b9150610b6382610b22565b602082019050919050565b60006020820190508181036000830152610b8781610b4b565b9050919050565b7f436f6e74726163742068617320746f2062652066756e64656400000000000000600082015250565b6000610bc4601983610a13565b9150610bcf82610b8e565b602082019050919050565b60006020820190508181036000830152610bf381610bb7565b9050919050565b6000604082019050610c0f600083018561096f565b610c1c6020830184610913565b9392505050565b600080fd5b610c31816108d3565b8114610c3c57600080fd5b50565b600081519050610c4e81610c28565b92915050565b600060208284031215610c6a57610c69610c23565b5b6000610c7884828501610c3f565b91505092915050565b7f4f6e6c792074686520696e73757265642063616e2063616c6c2074686973206660008201527f756e6374696f6e00000000000000000000000000000000000000000000000000602082015250565b6000610cdd602783610a13565b9150610ce882610c81565b604082019050919050565b60006020820190508181036000830152610d0c81610cd0565b9050919050565b7f416c726561647920616374697661746564000000000000000000000000000000600082015250565b6000610d49601183610a13565b9150610d5482610d13565b602082019050919050565b60006020820190508181036000830152610d7881610d3c565b9050919050565b7f4e487b7100000000000000000000000000000000000000000000000000000000600052601160045260246000fd5b6000610db982610909565b9150610dc483610909565b9250828202610dd281610909565b91508282048414831517610de957610de8610d7f565b5b5092915050565b7f4e487b7100000000000000000000000000000000000000000000000000000000600052601260045260246000fd5b6000610e2a82610909565b9150610e3583610909565b925082610e4557610e44610df0565b5b828204905092915050565b6000606082019050610e65600083018661096f565b610e72602083018561096f565b610e7f6040830184610913565b949350505050565b7f416c72656164792066756e646564000000000000000000000000000000000000600082015250565b6000610ebd600e83610a13565b9150610ec882610e87565b602082019050919050565b60006020820190508181036000830152610eec81610eb0565b905091905056fea26469706673582212209cab527dea9154a12cddd3ffb9edc786380859b521a30c1c42e12599146a547864736f6c634300081c0033a2646970667358221220cb641d2df2a67e9d771c87430543abcfc74fcee73c13c0647d63f1a6a0bb79c564736f6c634300081c0033",
  "linkReferences": {},
  "deployedLinkReferences": {}
}