{
  "_format": "hh-sol-artifact-1",
  "contractName": "InsuranceFactory",
  "sourceName": "contracts/InsuranceFactory.sol",
  "abi": [
    {
      "inputs": [
        {
          "internalType": "address",
          "name": "_token",
          "type": "address"
        }
      ],
      "stateMutability": "nonpayable",
      "type": "constructor"
    },
    {
      "anonymous": false,
      "inputs": [
        {
          "indexed": true,
          "internalType": "address",
          "name": "contractAddress",
          "type": "address"
        },
        {
          "indexed": true,
          "internalType": "address",
          "name": "assicurato",
          "type": "address"
        },
        {
          "indexed": false,
          "internalType": "uint256",
          "name": "premioAssicurativo",
          "type": "uint256"
        }
      ],
      "name": "NewInsuranceContractCreated",
      "type": "event"
    },
    {
      "inputs": [
        {
          "internalType": "uint256",
          "name": "",
          "type": "uint256"
        }
      ],
      "name": "allInsuranceContracts",
      "outputs": [
        {
          "internalType": "address",
          "name": "",
          "type": "address"
        }
      ],
      "stateMutability": "view",
      "type": "function"
    },
    {
      "inputs": [],
      "name": "assicuratore",
      "outputs": [
        {
          "internalType": "address",
          "name": "",
          "type": "address"
        }
      ],
      "stateMutability": "view",
      "type": "function"
    },
    {
      "inputs": [
        {
          "internalType": "address",
          "name": "assicurato",
          "type": "address"
        },
        {
          "internalType": "uint256",
          "name": "premioAssicurativo",
          "type": "uint256"
        }
      ],
      "name": "createInsurance",
      "outputs": [
        {
          "internalType": "address",
          "name": "",
          "type": "address"
        }
      ],
      "stateMutability": "nonpayable",
      "type": "function"
    },
    {
      "inputs": [],
      "name": "getAllInsuranceContracts",
      "outputs": [
        {
          "internalType": "address[]",
          "name": "",
          "type": "address[]"
        }
      ],
      "stateMutability": "view",
      "type": "function"
    },
    {
      "inputs": [
        {
          "internalType": "address",
          "name": "assicurato",
          "type": "address"
        }
      ],
      "name": "getInsuranceContractsByInsured",
      "outputs": [
        {
          "internalType": "address[]",
          "name": "",
          "type": "address[]"
        }
      ],
      "stateMutability": "view",
      "type": "function"
    },
    {
      "inputs": [
        {
          "internalType": "address",
          "name": "",
          "type": "address"
        },
        {
          "internalType": "uint256",
          "name": "",
          "type": "uint256"
        }
      ],
      "name": "insuranceContractsByInsured",
      "outputs": [
        {
          "internalType": "address",
          "name": "",
          "type": "address"
        }
      ],
      "stateMutability": "view",
      "type": "function"
    },
    {
      "inputs": [],
      "name": "tokenAddress",
      "outputs": [
        {
          "internalType": "address",
          "name": "",
          "type": "address"
        }
      ],
      "stateMutability": "view",
      "type": "function"
    }
  ],
  "bytecode": "0x608060405234801561001057600080fd5b50604051611f71380380611f718339818101604052810190610032919061011c565b336000806101000a81548173ffffffffffffffffffffffffffffffffffffffff021916908373ffffffffffffffffffffffffffffffffffffffff16021790555080600160006101000a81548173ffffffffffffffffffffffffffffffffffffffff021916908373ffffffffffffffffffffffffffffffffffffffff16021790555050610149565b600080fd5b600073ffffffffffffffffffffffffffffffffffffffff82169050919050565b60006100e9826100be565b9050919050565b6100f9816100de565b811461010457600080fd5b50565b600081519050610116816100f0565b92915050565b600060208284031215610132576101316100b9565b5b600061014084828501610107565b91505092915050565b611e19806101586000396000f3fe608060405234801561001057600080fd5b506004361061007d5760003560e01c80637a33bb441161005b5780637a33bb44146101005780639d76ea5814610130578063c9fc0de31461014e578063f4265ced1461017e5761007d565b806308e7bebb1461008257806328b09fd3146100a05780635389bb33146100d0575b600080fd5b61008a61019c565b60405161009791906107dd565b60405180910390f35b6100ba60048036038101906100b5919061083a565b6102b8565b6040516100c79190610876565b60405180910390f35b6100ea60048036038101906100e591906108bd565b6102f7565b6040516100f79190610876565b60405180910390f35b61011a600480360381019061011591906108bd565b610345565b6040516101279190610876565b60405180910390f35b6101386105c9565b6040516101459190610876565b60405180910390f35b610168600480360381019061016391906108fd565b6105ef565b60405161017591906107dd565b60405180910390f35b6101866106bc565b6040516101939190610876565b60405180910390f35b606060008054906101000a900473ffffffffffffffffffffffffffffffffffffffff1673ffffffffffffffffffffffffffffffffffffffff163373ffffffffffffffffffffffffffffffffffffffff161461022c576040517f08c379a000000000000000000000000000000000000000000000000000000000815260040161022390610987565b60405180910390fd5b60028054806020026020016040519081016040528092919081815260200182805480156102ae57602002820191906000526020600020905b8160009054906101000a900473ffffffffffffffffffffffffffffffffffffffff1673ffffffffffffffffffffffffffffffffffffffff1681526020019060010190808311610264575b5050505050905090565b600281815481106102c857600080fd5b906000526020600020016000915054906101000a900473ffffffffffffffffffffffffffffffffffffffff1681565b6003602052816000526040600020818154811061031357600080fd5b906000526020600020016000915091509054906101000a900473ffffffffffffffffffffffffffffffffffffffff1681565b60008060009054906101000a900473ffffffffffffffffffffffffffffffffffffffff1673ffffffffffffffffffffffffffffffffffffffff163373ffffffffffffffffffffffffffffffffffffffff16146103d6576040517f08c379a00000000000000000000000000000000000000000000000000000000081526004016103cd90610987565b60405180910390fd5b60008060009054906101000a900473ffffffffffffffffffffffffffffffffffffffff1684600160009054906101000a900473ffffffffffffffffffffffffffffffffffffffff168560405161042b906106e0565b61043894939291906109b6565b604051809103906000f080158015610454573d6000803e3d6000fd5b5090506002819080600181540180825580915050600190039060005260206000200160009091909190916101000a81548173ffffffffffffffffffffffffffffffffffffffff021916908373ffffffffffffffffffffffffffffffffffffffff160217905550600360008573ffffffffffffffffffffffffffffffffffffffff1673ffffffffffffffffffffffffffffffffffffffff168152602001908152602001600020819080600181540180825580915050600190039060005260206000200160009091909190916101000a81548173ffffffffffffffffffffffffffffffffffffffff021916908373ffffffffffffffffffffffffffffffffffffffff1602179055508373ffffffffffffffffffffffffffffffffffffffff168173ffffffffffffffffffffffffffffffffffffffff167f636e3cc186de8b0a2572dc62a4d06236a7a90b14451d99e2ac7bd2e8b1ea9d3b856040516105b791906109fb565b60405180910390a38091505092915050565b600160009054906101000a900473ffffffffffffffffffffffffffffffffffffffff1681565b6060600360008373ffffffffffffffffffffffffffffffffffffffff1673ffffffffffffffffffffffffffffffffffffffff1681526020019081526020016000208054806020026020016040519081016040528092919081815260200182805480156106b057602002820191906000526020600020905b8160009054906101000a900473ffffffffffffffffffffffffffffffffffffffff1673ffffffffffffffffffffffffffffffffffffffff1681526020019060010190808311610666575b50505050509050919050565b60008054906101000a900473ffffffffffffffffffffffffffffffffffffffff1681565b6113cd80610a1783390190565b600081519050919050565b600082825260208201905092915050565b6000819050602082019050919050565b600073ffffffffffffffffffffffffffffffffffffffff82169050919050565b600061074482610719565b9050919050565b61075481610739565b82525050565b6000610766838361074b565b60208301905092915050565b6000602082019050919050565b600061078a826106ed565b61079481856106f8565b935061079f83610709565b8060005b838110156107d05781516107b7888261075a565b97506107c283610772565b9250506001810190506107a3565b5085935050505092915050565b600060208201905081810360008301526107f7818461077f565b905092915050565b600080fd5b6000819050919050565b61081781610804565b811461082257600080fd5b50565b6000813590506108348161080e565b92915050565b6000602082840312156108505761084f6107ff565b5b600061085e84828501610825565b91505092915050565b61087081610739565b82525050565b600060208201905061088b6000830184610867565b92915050565b61089a81610739565b81146108a557600080fd5b50565b6000813590506108b781610891565b92915050565b600080604083850312156108d4576108d36107ff565b5b60006108e2858286016108a8565b92505060206108f385828601610825565b9150509250929050565b600060208284031215610913576109126107ff565b5b6000610921848285016108a8565b91505092915050565b600082825260208201905092915050565b7f4f6e6c7920696e73757265722063616e2063616c6c2074686973000000000000600082015250565b6000610971601a8361092a565b915061097c8261093b565b602082019050919050565b600060208201905081810360008301526109a081610964565b9050919050565b6109b081610804565b82525050565b60006080820190506109cb6000830187610867565b6109d86020830186610867565b6109e56040830185610867565b6109f260608301846109a7565b95945050505050565b6000602082019050610a1060008301846109a7565b9291505056fe608060405234801561001057600080fd5b506040516113cd3803806113cd833981810160405281019061003291906101ed565b836000806101000a81548173ffffffffffffffffffffffffffffffffffffffff021916908373ffffffffffffffffffffffffffffffffffffffff16021790555082600160006101000a81548173ffffffffffffffffffffffffffffffffffffffff021916908373ffffffffffffffffffffffffffffffffffffffff1602179055506000600360006101000a81548160ff02191690831515021790555080600281905550816003806101000a81548173ffffffffffffffffffffffffffffffffffffffff021916908373ffffffffffffffffffffffffffffffffffffffff1602179055506000600360016101000a81548160ff0219169083151502179055506000600360026101000a81548160ff02191690831515021790555050505050610254565b600080fd5b600073ffffffffffffffffffffffffffffffffffffffff82169050919050565b600061018482610159565b9050919050565b61019481610179565b811461019f57600080fd5b50565b6000815190506101b18161018b565b92915050565b6000819050919050565b6101ca816101b7565b81146101d557600080fd5b50565b6000815190506101e7816101c1565b92915050565b6000806000806080858703121561020757610206610154565b5b6000610215878288016101a2565b9450506020610226878288016101a2565b9350506040610237878288016101a2565b9250506060610248878288016101d8565b91505092959194509250565b61116a806102636000396000f3fe608060405234801561001057600080fd5b506004361061009e5760003560e01c8063bd097e2111610066578063bd097e2114610111578063c52b26251461011b578063f3a504f214610139578063f4265ced14610157578063fc0c546a146101755761009e565b80632fb7a693146100a357806337332fbe146100c15780634d569aed146100cb57806350237f72146100e95780638fda356d14610107575b600080fd5b6100ab610193565b6040516100b89190610af8565b60405180910390f35b6100c96101a6565b005b6100d36104b0565b6040516100e09190610af8565b60405180910390f35b6100f16104c3565b6040516100fe9190610b2c565b60405180910390f35b61010f6104c9565b005b6101196107f0565b005b610123610a5c565b6040516101309190610b88565b60405180910390f35b610141610a82565b60405161014e9190610af8565b60405180910390f35b61015f610a95565b60405161016c9190610b88565b60405180910390f35b61017d610ab9565b60405161018a9190610c02565b60405180910390f35b600360009054906101000a900460ff1681565b60008054906101000a900473ffffffffffffffffffffffffffffffffffffffff1673ffffffffffffffffffffffffffffffffffffffff163373ffffffffffffffffffffffffffffffffffffffff1614610234576040517f08c379a000000000000000000000000000000000000000000000000000000000815260040161022b90610ca0565b60405180910390fd5b600360009054906101000a900460ff1615610284576040517f08c379a000000000000000000000000000000000000000000000000000000000815260040161027b90610d0c565b60405180910390fd5b600360019054906101000a900460ff166102d3576040517f08c379a00000000000000000000000000000000000000000000000000000000081526004016102ca90610d78565b60405180910390fd5b600360029054906101000a900460ff16610322576040517f08c379a000000000000000000000000000000000000000000000000000000000815260040161031990610de4565b60405180910390fd5b60038054906101000a900473ffffffffffffffffffffffffffffffffffffffff1673ffffffffffffffffffffffffffffffffffffffff1663a9059cbb600160009054906101000a900473ffffffffffffffffffffffffffffffffffffffff166002546040518363ffffffff1660e01b81526004016103a1929190610e04565b6020604051808303816000875af11580156103c0573d6000803e3d6000fd5b505050506040513d601f19601f820116820180604052508101906103e49190610e5e565b506001600360006101000a81548160ff02191690831515021790555060008054906101000a900473ffffffffffffffffffffffffffffffffffffffff1673ffffffffffffffffffffffffffffffffffffffff16600160009054906101000a900473ffffffffffffffffffffffffffffffffffffffff1673ffffffffffffffffffffffffffffffffffffffff167f8e05635d71ff98e3076ed0a5c343c3586a3cd7e14698445ac4eef68c74879bb73060025460016040516104a693929190610e8b565b60405180910390a3565b600360019054906101000a900460ff1681565b60025481565b600160009054906101000a900473ffffffffffffffffffffffffffffffffffffffff1673ffffffffffffffffffffffffffffffffffffffff163373ffffffffffffffffffffffffffffffffffffffff1614610559576040517f08c379a000000000000000000000000000000000000000000000000000000000815260040161055090610f34565b60405180910390fd5b600360009054906101000a900460ff16156105a9576040517f08c379a00000000000000000000000000000000000000000000000000000000081526004016105a090610d0c565b60405180910390fd5b600360019054906101000a900460ff16156105f9576040517f08c379a00000000000000000000000000000000000000000000000000000000081526004016105f090610fa0565b60405180910390fd5b600360029054906101000a900460ff16610648576040517f08c379a000000000000000000000000000000000000000000000000000000000815260040161063f90610de4565b60405180910390fd5b60038054906101000a900473ffffffffffffffffffffffffffffffffffffffff1673ffffffffffffffffffffffffffffffffffffffff166323b872dd600160009054906101000a900473ffffffffffffffffffffffffffffffffffffffff1630606460056002546106b99190610fef565b6106c39190611060565b6040518463ffffffff1660e01b81526004016106e193929190611091565b6020604051808303816000875af1158015610700573d6000803e3d6000fd5b505050506040513d601f19601f820116820180604052508101906107249190610e5e565b506001600360016101000a81548160ff02191690831515021790555060008054906101000a900473ffffffffffffffffffffffffffffffffffffffff1673ffffffffffffffffffffffffffffffffffffffff16600160009054906101000a900473ffffffffffffffffffffffffffffffffffffffff1673ffffffffffffffffffffffffffffffffffffffff167f7ac887c64a217f7695927e70c25f64dbb33d248db3c7193bda4fa9cabe3d213f3060025460016040516107e693929190610e8b565b60405180910390a3565b60008054906101000a900473ffffffffffffffffffffffffffffffffffffffff1673ffffffffffffffffffffffffffffffffffffffff163373ffffffffffffffffffffffffffffffffffffffff161461087e576040517f08c379a000000000000000000000000000000000000000000000000000000000815260040161087590610ca0565b60405180910390fd5b600360029054906101000a900460ff16156108ce576040517f08c379a00000000000000000000000000000000000000000000000000000000081526004016108c590611114565b60405180910390fd5b60038054906101000a900473ffffffffffffffffffffffffffffffffffffffff1673ffffffffffffffffffffffffffffffffffffffff166323b872dd60008054906101000a900473ffffffffffffffffffffffffffffffffffffffff16306002546040518463ffffffff1660e01b815260040161094d93929190611091565b6020604051808303816000875af115801561096c573d6000803e3d6000fd5b505050506040513d601f19601f820116820180604052508101906109909190610e5e565b506001600360026101000a81548160ff02191690831515021790555060008054906101000a900473ffffffffffffffffffffffffffffffffffffffff1673ffffffffffffffffffffffffffffffffffffffff16600160009054906101000a900473ffffffffffffffffffffffffffffffffffffffff1673ffffffffffffffffffffffffffffffffffffffff167f088e89f55cdb7c625183373b7bb7975469ae94dfb8e7b4eb8a772817da1277c0306002546001604051610a5293929190610e8b565b60405180910390a3565b600160009054906101000a900473ffffffffffffffffffffffffffffffffffffffff1681565b600360029054906101000a900460ff1681565b60008054906101000a900473ffffffffffffffffffffffffffffffffffffffff1681565b60038054906101000a900473ffffffffffffffffffffffffffffffffffffffff1681565b60008115159050919050565b610af281610add565b82525050565b6000602082019050610b0d6000830184610ae9565b92915050565b6000819050919050565b610b2681610b13565b82525050565b6000602082019050610b416000830184610b1d565b92915050565b600073ffffffffffffffffffffffffffffffffffffffff82169050919050565b6000610b7282610b47565b9050919050565b610b8281610b67565b82525050565b6000602082019050610b9d6000830184610b79565b92915050565b6000819050919050565b6000610bc8610bc3610bbe84610b47565b610ba3565b610b47565b9050919050565b6000610bda82610bad565b9050919050565b6000610bec82610bcf565b9050919050565b610bfc81610be1565b82525050565b6000602082019050610c176000830184610bf3565b92915050565b600082825260208201905092915050565b7f4f6e6c792074686520696e73757265722063616e2063616c6c2074686973206660008201527f756e6374696f6e00000000000000000000000000000000000000000000000000602082015250565b6000610c8a602783610c1d565b9150610c9582610c2e565b604082019050919050565b60006020820190508181036000830152610cb981610c7d565b9050919050565b7f416c7265616479206c6971756964617465640000000000000000000000000000600082015250565b6000610cf6601283610c1d565b9150610d0182610cc0565b602082019050919050565b60006020820190508181036000830152610d2581610ce9565b9050919050565b7f436f6e7472616374206e6f742061637469766174656420796574000000000000600082015250565b6000610d62601a83610c1d565b9150610d6d82610d2c565b602082019050919050565b60006020820190508181036000830152610d9181610d55565b9050919050565b7f436f6e74726163742068617320746f2062652066756e64656400000000000000600082015250565b6000610dce601983610c1d565b9150610dd982610d98565b602082019050919050565b60006020820190508181036000830152610dfd81610dc1565b9050919050565b6000604082019050610e196000830185610b79565b610e266020830184610b1d565b9392505050565b600080fd5b610e3b81610add565b8114610e4657600080fd5b50565b600081519050610e5881610e32565b92915050565b600060208284031215610e7457610e73610e2d565b5b6000610e8284828501610e49565b91505092915050565b6000606082019050610ea06000830186610b79565b610ead6020830185610b1d565b610eba6040830184610ae9565b949350505050565b7f4f6e6c792074686520696e73757265642063616e2063616c6c2074686973206660008201527f756e6374696f6e00000000000000000000000000000000000000000000000000602082015250565b6000610f1e602783610c1d565b9150610f2982610ec2565b604082019050919050565b60006020820190508181036000830152610f4d81610f11565b9050919050565b7f416c726561647920616374697661746564000000000000000000000000000000600082015250565b6000610f8a601183610c1d565b9150610f9582610f54565b602082019050919050565b60006020820190508181036000830152610fb981610f7d565b9050919050565b7f4e487b7100000000000000000000000000000000000000000000000000000000600052601160045260246000fd5b6000610ffa82610b13565b915061100583610b13565b925082820261101381610b13565b9150828204841483151761102a57611029610fc0565b5b5092915050565b7f4e487b7100000000000000000000000000000000000000000000000000000000600052601260045260246000fd5b600061106b82610b13565b915061107683610b13565b92508261108657611085611031565b5b828204905092915050565b60006060820190506110a66000830186610b79565b6110b36020830185610b79565b6110c06040830184610b1d565b949350505050565b7f416c72656164792066756e646564000000000000000000000000000000000000600082015250565b60006110fe600e83610c1d565b9150611109826110c8565b602082019050919050565b6000602082019050818103600083015261112d816110f1565b905091905056fea264697066735822122063091945d06ea881a01561a5feb36b84a3232fefca1cf82f4735d27f3ca5b55764736f6c634300081c0033a2646970667358221220ac7b8b153f13f14bf70ac390c74d9bd7febf8602c58b1dcf398a12f8ce44706264736f6c634300081c0033",
  "linkReferences": {},
  "deployedLinkReferences": {}
}